:100000000C9445000C9400000C9400000C9400002B
:100010000C9400000C9400000C9400000C94000060
:100020000C9400000C9400000C9400000C94000050
:100030000C9400000C9400000C9400000C94000040
:100040000C9400000C9400000C9400000C94000030
:100050000C9400000C9400000C9400000C94000020
:100060000C9400000C940000202020202020202050
:100070002020202020202020000080C0110000032C
:100080006800020011037A000000F894EE27EFBB2D
:10009000F1E0F5BFE5BF8DE0A2E0BB27ED938A95C7
:1000A000E9F780E098E0A0E0B1E0ED930197E9F78F
:1000B000ECE7F0E085919591009761F0A591B591FD
:1000C00005901590BF01F00105900D920197E1F7A1
:1000D000FB01F0CFE0E0EEBBEFEFEDBFE8E0EEBFFD
:1000E000C0E0D3E00C947400E0E8E0936100E0E04D
:1000F000E0936100A0E192D0E0E0EA93A0E051D06B
:10010000AEE366D0E1E04E2EE0E14E1658F44A929E
:10011000A0E047D0AFEF5CD0A4EFB1E00E94460171
:100120004394F2CFA8EEB3E00E944601E0E0EA93E8
:10013000A0E037D0A0E0B3E060D0DECFFFCFAA933D
:10014000E881E07111F0299A01C02998E881E072F4
:1001500011F0289A01C02898E881E07411F05F9AA4
:1001600001C05F98E881E07811F05E9A01C05E9866
:100170008BE18A95F1F72A9A8BE18A95F1F72A9813
:100180008BE18A95F1F774C0AA93A881D8DFE88142
:10019000E295E883A881D3DF88EC90E00197F1F73E
:1001A00067C0AA93E881F0E0EF5EFC4FE081A9818F
:1001B000AE0FEADF3980688022960895A2E05AD017
:1001C000ACE0E2DFA1E056D0E0E06E2E3E2E0895D6
:1001D000AA93A881AA3011F0351448F0E0E0EA9320
:1001E0006394A62DDEDFA881AA3009F441C03394C0
:1001F0002C9AA881C9DF2C983BC0BA93AA931A9372
:10020000A981BA81ED91A983BA831E2FE03019F03C
:10021000A12FDEDFF5CF188123960895AA93219AA6
:10022000209A579A569A229A249A239A2A982C9876
:100230002B985880E881E058E0931303E881E0545C
:10024000E0931403A4E1B0E00E94460118D017D057
:1002500016D0A0E274DF80E991E00197F1F7A8E2FF
:1002600093DFA4E091DFA5E88FDFA6E08DDFA6DFB6
:100270002196089589DFA3E0B0E00C944601A0E345
:100280005EDF80E991E00197F1F70895109639F06B
:1002900080EA9FE00197F1F7A8951197C9F70895B3
:00000001FF
